{
  "contractName": "pet",
  "abi": [
    {
      "inputs": [],
      "payable": false,
      "stateMutability": "nonpayable",
      "type": "constructor",
      "signature": "constructor"
    },
    {
      "constant": false,
      "inputs": [
        {
          "name": "_variety",
          "type": "int8"
        },
        {
          "name": "_name",
          "type": "string"
        }
      ],
      "name": "createPet",
      "outputs": [],
      "payable": false,
      "stateMutability": "nonpayable",
      "type": "function",
      "signature": "0xa9f193af"
    },
    {
      "constant": false,
      "inputs": [
        {
          "name": "FoodOrMedicine",
          "type": "bool"
        }
      ],
      "name": "purchase",
      "outputs": [],
      "payable": true,
      "stateMutability": "payable",
      "type": "function",
      "signature": "0x2873a0cd"
    },
    {
      "constant": false,
      "inputs": [],
      "name": "getThePet",
      "outputs": [
        {
          "name": "",
          "type": "uint8"
        },
        {
          "name": "",
          "type": "uint8"
        },
        {
          "name": "",
          "type": "uint8"
        },
        {
          "name": "",
          "type": "uint8"
        },
        {
          "name": "",
          "type": "string"
        }
      ],
      "payable": false,
      "stateMutability": "nonpayable",
      "type": "function",
      "signature": "0x53578607"
    },
    {
      "constant": false,
      "inputs": [],
      "name": "exercise",
      "outputs": [],
      "payable": false,
      "stateMutability": "nonpayable",
      "type": "function",
      "signature": "0xd32cb0fe"
    },
    {
      "constant": false,
      "inputs": [
        {
          "name": "friend",
          "type": "address"
        }
      ],
      "name": "askforfriend",
      "outputs": [],
      "payable": false,
      "stateMutability": "nonpayable",
      "type": "function",
      "signature": "0x8d83c5af"
    },
    {
      "constant": true,
      "inputs": [],
      "name": "getfriendlist",
      "outputs": [
        {
          "name": "",
          "type": "address[]"
        },
        {
          "name": "",
          "type": "address[]"
        },
        {
          "name": "",
          "type": "address[]"
        }
      ],
      "payable": false,
      "stateMutability": "view",
      "type": "function",
      "signature": "0x85219ea5"
    },
    {
      "constant": false,
      "inputs": [
        {
          "name": "friend",
          "type": "address"
        }
      ],
      "name": "acceptfriend",
      "outputs": [],
      "payable": false,
      "stateMutability": "nonpayable",
      "type": "function",
      "signature": "0xd9dc655f"
    },
    {
      "constant": false,
      "inputs": [
        {
          "name": "_friend",
          "type": "address"
        }
      ],
      "name": "feedforFriend",
      "outputs": [],
      "payable": true,
      "stateMutability": "payable",
      "type": "function",
      "signature": "0x16af384b"
    },
    {
      "constant": true,
      "inputs": [
        {
          "name": "_friend",
          "type": "address"
        }
      ],
      "name": "getFriendPet",
      "outputs": [
        {
          "name": "",
          "type": "uint8"
        },
        {
          "name": "",
          "type": "uint8"
        },
        {
          "name": "",
          "type": "uint8"
        },
        {
          "name": "",
          "type": "uint8"
        },
        {
          "name": "",
          "type": "string"
        }
      ],
      "payable": false,
      "stateMutability": "view",
      "type": "function",
      "signature": "0xf762aa1d"
    }
  ],
  "bytecode": "0x608060405234801561001057600080fd5b50612611806100206000396000f3fe608060405260043610610099576000357c0100000000000000000000000000000000000000000000000000000000900463ffffffff16806316af384b1461009e5780632873a0cd146100e2578063535786071461011257806385219ea5146101de5780638d83c5af146102da578063a9f193af1461032b578063d32cb0fe14610400578063d9dc655f14610417578063f762aa1d14610468575b600080fd5b6100e0600480360360208110156100b457600080fd5b81019080803573ffffffffffffffffffffffffffffffffffffffff16906020019092919050505061056e565b005b610110600480360360208110156100f857600080fd5b81019080803515159060200190929190505050610899565b005b34801561011e57600080fd5b50610127610b1d565b604051808660ff1660ff1681526020018560ff1660ff1681526020018460ff1660ff16815260200183600281111561015b57fe5b60ff16815260200180602001828103825283818151815260200191508051906020019080838360005b8381101561019f578082015181840152602081019050610184565b50505050905090810190601f1680156101cc5780820380516001836020036101000a031916815260200191505b50965050505050505060405180910390f35b3480156101ea57600080fd5b506101f3610ea7565b60405180806020018060200180602001848103845287818151815260200191508051906020019060200280838360005b8381101561023e578082015181840152602081019050610223565b50505050905001848103835286818151815260200191508051906020019060200280838360005b83811015610280578082015181840152602081019050610265565b50505050905001848103825285818151815260200191508051906020019060200280838360005b838110156102c25780820151818401526020810190506102a7565b50505050905001965050505050505060405180910390f35b3480156102e657600080fd5b50610329600480360360208110156102fd57600080fd5b81019080803573ffffffffffffffffffffffffffffffffffffffff1690602001909291905050506110cf565b005b34801561033757600080fd5b506103fe6004803603604081101561034e57600080fd5b81019080803560000b90602001909291908035906020019064010000000081111561037857600080fd5b82018360208201111561038a57600080fd5b803590602001918460018302840111640100000000831117156103ac57600080fd5b91908080601f016020809104026020016040519081016040528093929190818152602001838380828437600081840152601f19601f8201169050808301925050505050505091929192905050506117c6565b005b34801561040c57600080fd5b506104156119b7565b005b34801561042357600080fd5b506104666004803603602081101561043a57600080fd5b81019080803573ffffffffffffffffffffffffffffffffffffffff169060200190929190505050611c23565b005b34801561047457600080fd5b506104b76004803603602081101561048b57600080fd5b81019080803573ffffffffffffffffffffffffffffffffffffffff1690602001909291905050506121d3565b604051808660ff1660ff1681526020018560ff1660ff1681526020018460ff1660ff1681526020018360028111156104eb57fe5b60ff16815260200180602001828103825283818151815260200191508051906020019080838360005b8381101561052f578082015181840152602081019050610514565b50505050905090810190601f16801561055c5780820380516001836020036101000a031916815260200191505b50965050505050505060405180910390f35b806000600160003373ffffffffffffffffffffffffffffffffffffffff1673ffffffffffffffffffffffffffffffffffffffff1681526020019081526020016000209050610644828260000180548060200260200160405190810160405280929190818152602001828054801561063a57602002820191906000526020600020905b8160009054906101000a900473ffffffffffffffffffffffffffffffffffffffff1673ffffffffffffffffffffffffffffffffffffffff16815260200190600101908083116105f0575b5050505050612475565b1515156106b9576040517f08c379a00000000000000000000000000000000000000000000000000000000081526004018080602001828103825260128152602001807f596f75206172656e277420667269656e6473000000000000000000000000000081525060200191505060405180910390fd5b6000612710905060008060008673ffffffffffffffffffffffffffffffffffffffff1673ffffffffffffffffffffffffffffffffffffffff16815260200190815260200160002090503373ffffffffffffffffffffffffffffffffffffffff168573ffffffffffffffffffffffffffffffffffffffff16141515156107a6576040517f08c379a00000000000000000000000000000000000000000000000000000000081526004018080602001828103825260188152602001807f596f752063616e2774206665656420796f757273656c6621000000000000000081525060200191505060405180910390fd5b348214151561081d576040517f08c379a000000000000000000000000000000000000000000000000000000000815260040180806020018281038252600a8152602001807f5061792077726f6e67210000000000000000000000000000000000000000000081525060200191505060405180910390fd5b60328160020160000160028282829054906101000a900460ff160192506101000a81548160ff021916908360ff16021790555060648160020160000160029054906101000a900460ff1660ff1611156108925760648160020160000160026101000a81548160ff021916908360ff1602179055505b5050505050565b60008060003373ffffffffffffffffffffffffffffffffffffffff1673ffffffffffffffffffffffffffffffffffffffff16815260200190815260200160002090508060000160009054906101000a900460ff161515610961576040517f08c379a00000000000000000000000000000000000000000000000000000000081526004018080602001828103825260168152602001807f546865206d617374657220686173206e6f20706574210000000000000000000081525060200191505060405180910390fd5b6000612710905060008060003373ffffffffffffffffffffffffffffffffffffffff1673ffffffffffffffffffffffffffffffffffffffff16815260200190815260200160002090503482141515610a21576040517f08c379a000000000000000000000000000000000000000000000000000000000815260040180806020018281038252600a8152602001807f5061792077726f6e67210000000000000000000000000000000000000000000081525060200191505060405180910390fd5b8315610aa15760328160020160000160018282829054906101000a900460ff160192506101000a81548160ff021916908360ff16021790555060648160020160000160019054906101000a900460ff1660ff161115610a9c5760648160020160000160016101000a81548160ff021916908360ff1602179055505b610b17565b60328160020160000160028282829054906101000a900460ff160192506101000a81548160ff021916908360ff16021790555060648160020160000160029054906101000a900460ff1660ff161115610b165760648160020160000160026101000a81548160ff021916908360ff1602179055505b5b50505050565b600080600080606060008060003373ffffffffffffffffffffffffffffffffffffffff1673ffffffffffffffffffffffffffffffffffffffff16815260200190815260200160002090508060000160009054906101000a900460ff161515610bed576040517f08c379a00000000000000000000000000000000000000000000000000000000081526004018080602001828103825260148152602001807f546865207573657220686173206e6f207065742100000000000000000000000081525060200191505060405180910390fd5b60008160010154420390506000600c90505b610258821115610d595761025882039150610258836001016000828254019250508190555060018360020160000160018282829054906101000a900460ff160392506101000a81548160ff021916908360ff16021790555060028360020160000160029054906101000a900460ff1660ff161015610cf75760008360020160000160026101000a81548160ff021916908360ff16021790555060008360020160000160019054906101000a900460ff1660ff16141515610cf25782600201600001600181819054906101000a900460ff16809291906001900391906101000a81548160ff021916908360ff160217905550505b610d2b565b60028360020160000160028282829054906101000a900460ff160392506101000a81548160ff021916908360ff1602179055505b8080600190039150506000811415610d5457818360010160008282540192505081905550610d59565b610bff565b60008060003373ffffffffffffffffffffffffffffffffffffffff1673ffffffffffffffffffffffffffffffffffffffff16815260200190815260200160002090508060020160000160009054906101000a900460ff168160020160000160019054906101000a900460ff168260020160000160029054906101000a900460ff168360020160000160039054906101000a900460ff1684600201600101808054600181600116156101000203166002900480601f016020809104026020016040519081016040528092919081815260200182805460018160011615610100020316600290048015610e8b5780601f10610e6057610100808354040283529160200191610e8b565b820191906000526020600020905b815481529060010190602001808311610e6e57829003601f168201915b5050505050905098509850985098509850505050509091929394565b6060806060610eb46124f2565b600160003373ffffffffffffffffffffffffffffffffffffffff1673ffffffffffffffffffffffffffffffffffffffff1681526020019081526020016000206060604051908101604052908160008201805480602002602001604051908101604052809291908181526020018280548015610f8457602002820191906000526020600020905b8160009054906101000a900473ffffffffffffffffffffffffffffffffffffffff1673ffffffffffffffffffffffffffffffffffffffff1681526020019060010190808311610f3a575b505050505081526020016001820180548060200260200160405190810160405280929190818152602001828054801561101257602002820191906000526020600020905b8160009054906101000a900473ffffffffffffffffffffffffffffffffffffffff1673ffffffffffffffffffffffffffffffffffffffff1681526020019060010190808311610fc8575b50505050508152602001600282018054806020026020016040519081016040528092919081815260200182805480156110a057602002820191906000526020600020905b8160009054906101000a900473ffffffffffffffffffffffffffffffffffffffff1673ffffffffffffffffffffffffffffffffffffffff1681526020019060010190808311611056575b505050505081525050905080600001518160200151826040015182925081915080905093509350935050909192565b806000600160003373ffffffffffffffffffffffffffffffffffffffff1673ffffffffffffffffffffffffffffffffffffffff16815260200190815260200160002090506111a5828260000180548060200260200160405190810160405280929190818152602001828054801561119b57602002820191906000526020600020905b8160009054906101000a900473ffffffffffffffffffffffffffffffffffffffff1673ffffffffffffffffffffffffffffffffffffffff1681526020019060010190808311611151575b5050505050612475565b1515611219576040517f08c379a00000000000000000000000000000000000000000000000000000000081526004018080602001828103825260158152602001807f596f752068617665206265656e20667269656e6473000000000000000000000081525060200191505060405180910390fd5b6112ab82826001018054806020026020016040519081016040528092919081815260200182805480156112a157602002820191906000526020600020905b8160009054906101000a900473ffffffffffffffffffffffffffffffffffffffff1673ffffffffffffffffffffffffffffffffffffffff1681526020019060010190808311611257575b5050505050612475565b151561131f576040517f08c379a00000000000000000000000000000000000000000000000000000000081526004018080602001828103825260128152602001807f596f7520686176652061736b656420796574000000000000000000000000000081525060200191505060405180910390fd5b6113b182826002018054806020026020016040519081016040528092919081815260200182805480156113a757602002820191906000526020600020905b8160009054906101000a900473ffffffffffffffffffffffffffffffffffffffff1673ffffffffffffffffffffffffffffffffffffffff168152602001906001019080831161135d575b5050505050612475565b151561144b576040517f08c379a00000000000000000000000000000000000000000000000000000000081526004018080602001828103825260218152602001807f54686520667269656e6420697320696e20796f757220726563657074206c697381526020017f740000000000000000000000000000000000000000000000000000000000000081525060400191505060405180910390fd5b6000803373ffffffffffffffffffffffffffffffffffffffff1673ffffffffffffffffffffffffffffffffffffffff16815260200190815260200160002060000160009054906101000a900460ff16151561150e576040517f08c379a000000000000000000000000000000000000000000000000000000000815260040180806020018281038252601d8152602001807f596f752073686f756c642068617665206e6f207065742066697273742100000081525060200191505060405180910390fd5b6000808473ffffffffffffffffffffffffffffffffffffffff1673ffffffffffffffffffffffffffffffffffffffff16815260200190815260200160002060000160009054906101000a900460ff1615156115d1576040517f08c379a00000000000000000000000000000000000000000000000000000000081526004018080602001828103825260178152602001807f596f757220667269656e6420686173206e6f207065742100000000000000000081525060200191505060405180910390fd5b3373ffffffffffffffffffffffffffffffffffffffff168373ffffffffffffffffffffffffffffffffffffffff1614151515611675576040517f08c379a00000000000000000000000000000000000000000000000000000000081526004018080602001828103825260178152602001807f596f752063616e27742061736b20796f757273656c662100000000000000000081525060200191505060405180910390fd5b600160003373ffffffffffffffffffffffffffffffffffffffff1673ffffffffffffffffffffffffffffffffffffffff1681526020019081526020016000206001018390806001815401808255809150509060018203906000526020600020016000909192909190916101000a81548173ffffffffffffffffffffffffffffffffffffffff021916908373ffffffffffffffffffffffffffffffffffffffff16021790555050600160008473ffffffffffffffffffffffffffffffffffffffff1673ffffffffffffffffffffffffffffffffffffffff1681526020019081526020016000206002013390806001815401808255809150509060018203906000526020600020016000909192909190916101000a81548173ffffffffffffffffffffffffffffffffffffffff021916908373ffffffffffffffffffffffffffffffffffffffff16021790555050505050565b60008060003373ffffffffffffffffffffffffffffffffffffffff1673ffffffffffffffffffffffffffffffffffffffff16815260200190815260200160002090508060000160009054906101000a900460ff1615151561188f576040517f08c379a00000000000000000000000000000000000000000000000000000000081526004018080602001828103825260178152602001807f546865207573657220686173206861642061207065742100000000000000000081525060200191505060405180910390fd5b42816001018190555060018160000160006101000a81548160ff02191690831515021790555060a060405190810160405280600060ff168152602001606460ff168152602001606460ff1681526020018460000b60028111156118ee57fe5b60028111156118f957fe5b8152602001838152508160020160008201518160000160006101000a81548160ff021916908360ff16021790555060208201518160000160016101000a81548160ff021916908360ff16021790555060408201518160000160026101000a81548160ff021916908360ff16021790555060608201518160000160036101000a81548160ff0219169083600281111561198d57fe5b021790555060808201518160010190805190602001906119ae929190612514565b50905050505050565b60008060003373ffffffffffffffffffffffffffffffffffffffff1673ffffffffffffffffffffffffffffffffffffffff16815260200190815260200160002090508060000160009054906101000a900460ff161515611a7f576040517f08c379a00000000000000000000000000000000000000000000000000000000081526004018080602001828103825260168152602001807f546865206d617374657220686173206e6f20706574210000000000000000000081525060200191505060405180910390fd5b60008060003373ffffffffffffffffffffffffffffffffffffffff1673ffffffffffffffffffffffffffffffffffffffff168152602001908152602001600020905060148160020160000160029054906101000a900460ff1660ff1610151515611b77576040517f08c379a000000000000000000000000000000000000000000000000000000000815260040180806020018281038252602e8152602001807f596f757220706574206973207265616c6c792068756e6772792065617420736f81526020017f6d6520666f6f642066697273742e00000000000000000000000000000000000081525060400191505060405180910390fd5b600a8160020160000160018282829054906101000a900460ff160192506101000a81548160ff021916908360ff16021790555060648160020160000160019054906101000a900460ff1660ff161115611bec5760648160020160000160016101000a81548160ff021916908360ff1602179055505b600a8160020160000160028282829054906101000a900460ff160392506101000a81548160ff021916908360ff1602179055505050565b6000600160003373ffffffffffffffffffffffffffffffffffffffff1673ffffffffffffffffffffffffffffffffffffffff1681526020019081526020016000209050611cf88282600201805480602002602001604051908101604052809291908181526020018280548015611cee57602002820191906000526020600020905b8160009054906101000a900473ffffffffffffffffffffffffffffffffffffffff1673ffffffffffffffffffffffffffffffffffffffff1681526020019060010190808311611ca4575b5050505050612475565b151515611d93576040517f08c379a00000000000000000000000000000000000000000000000000000000081526004018080602001828103825260228152602001807f5468652061736b65722069736e277420696e2074686520726563657074206c6981526020017f737400000000000000000000000000000000000000000000000000000000000081525060400191505060405180910390fd5b806000018290806001815401808255809150509060018203906000526020600020016000909192909190916101000a81548173ffffffffffffffffffffffffffffffffffffffff021916908373ffffffffffffffffffffffffffffffffffffffff1602179055505060008090505b8160020180549050811015611f8e578160020181815481101515611e2157fe5b9060005260206000200160009054906101000a900473ffffffffffffffffffffffffffffffffffffffff1673ffffffffffffffffffffffffffffffffffffffff168373ffffffffffffffffffffffffffffffffffffffff161415611f8357816002016001836002018054905003815481101515611e9a57fe5b9060005260206000200160009054906101000a900473ffffffffffffffffffffffffffffffffffffffff168260020182815481101515611ed657fe5b9060005260206000200160006101000a81548173ffffffffffffffffffffffffffffffffffffffff021916908373ffffffffffffffffffffffffffffffffffffffff160217905550816002016001836002018054905003815481101515611f3957fe5b9060005260206000200160006101000a81549073ffffffffffffffffffffffffffffffffffffffff021916905581600201805480919060019003611f7d9190612594565b50611f8e565b806001019050611e01565b506000600160008473ffffffffffffffffffffffffffffffffffffffff1673ffffffffffffffffffffffffffffffffffffffff1681526020019081526020016000209050806000013390806001815401808255809150509060018203906000526020600020016000909192909190916101000a81548173ffffffffffffffffffffffffffffffffffffffff021916908373ffffffffffffffffffffffffffffffffffffffff1602179055505060008090505b81600101805490508110156121cd57816001018181548110151561206057fe5b9060005260206000200160009054906101000a900473ffffffffffffffffffffffffffffffffffffffff1673ffffffffffffffffffffffffffffffffffffffff168473ffffffffffffffffffffffffffffffffffffffff1614156121c2578160010160018360010180549050038154811015156120d957fe5b9060005260206000200160009054906101000a900473ffffffffffffffffffffffffffffffffffffffff16826001018281548110151561211557fe5b9060005260206000200160006101000a81548173ffffffffffffffffffffffffffffffffffffffff021916908373ffffffffffffffffffffffffffffffffffffffff16021790555081600101600183600101805490500381548110151561217857fe5b9060005260206000200160006101000a81549073ffffffffffffffffffffffffffffffffffffffff0219169055816001018054809190600190036121bc9190612594565b506121cd565b806001019050612040565b50505050565b6000806000806060856000600160003373ffffffffffffffffffffffffffffffffffffffff1673ffffffffffffffffffffffffffffffffffffffff16815260200190815260200160002090506122b182826000018054806020026020016040519081016040528092919081815260200182805480156122a757602002820191906000526020600020905b8160009054906101000a900473ffffffffffffffffffffffffffffffffffffffff1673ffffffffffffffffffffffffffffffffffffffff168152602001906001019080831161225d575b5050505050612475565b151515612326576040517f08c379a00000000000000000000000000000000000000000000000000000000081526004018080602001828103825260128152602001807f596f75206172656e277420667269656e6473000000000000000000000000000081525060200191505060405180910390fd5b60008060008a73ffffffffffffffffffffffffffffffffffffffff1673ffffffffffffffffffffffffffffffffffffffff16815260200190815260200160002090508060020160000160009054906101000a900460ff168160020160000160019054906101000a900460ff168260020160000160029054906101000a900460ff168360020160000160039054906101000a900460ff1684600201600101808054600181600116156101000203166002900480601f0160208091040260200160405190810160405280929190818152602001828054600181600116156101000203166002900480156124585780601f1061242d57610100808354040283529160200191612458565b820191906000526020600020905b81548152906001019060200180831161243b57829003601f168201915b505050505090509750975097509750975050505091939590929450565b600080600090505b82518110156124e657828181518110151561249457fe5b9060200190602002015173ffffffffffffffffffffffffffffffffffffffff168473ffffffffffffffffffffffffffffffffffffffff1614156124db5760009150506124ec565b80600101905061247d565b50600190505b92915050565b6060604051908101604052806060815260200160608152602001606081525090565b828054600181600116156101000203166002900490600052602060002090601f016020900481019282601f1061255557805160ff1916838001178555612583565b82800160010185558215612583579182015b82811115612582578251825591602001919060010190612567565b5b50905061259091906125c0565b5090565b8154818355818111156125bb578183600052602060002091820191016125ba91906125c0565b5b505050565b6125e291905b808211156125de5760008160009055506001016125c6565b5090565b9056fea165627a7a7230582015dae220de0ba693dd09016cbf1820ea7520b8f907ec4f6e08b0450a34c161970029",
  "source": "pragma solidity ^0.5.0;\n\n\ncontract pet {\n    // \n    enum Variety { Golden, Teddy, Husky }\n    // \n    struct Dog {\n        uint8 age;\n        uint8 health;\n        uint8 hunger;\n        Variety variety;\n        string name;\n    }\n    // \n    struct Master {\n        bool hasPet;\n        uint checktime;\n        Dog dog;\n    }\n\n    // \n    struct Friends {\n        address[] isfriends;\n        address[] askfriends;\n        address[] recept;\n    }\n    \n    // \n    mapping(address => Master) users;\n    // \n    mapping(address => Friends) friends;\n\n    // \n    modifier grow() {\n        Master storage master = users[msg.sender];\n        require(master.hasPet, \"The user has no pet!\");\n        uint duringTime = now - master.checktime;\n        int count = 12;\n        while (duringTime > 600) {\n            duringTime -= 600;\n            master.checktime += 600;\n            \n            // \n            master.dog.health -= 1;\n            // \n            if (master.dog.hunger < 2) {\n                master.dog.hunger = 0;\n                if (master.dog.health != 0) master.dog.health--;\n            }\n            else {\n                master.dog.hunger -= 2;\n            }\n            // 2\n            count--;\n            if (count == 0) {\n                master.checktime += duringTime;\n                break;\n            }\n        }\n        _;\n    }\n\n    // \n    modifier hasPet() {\n        Master storage master = users[msg.sender];\n        require(master.hasPet, \"The master has no pet!\");\n        _;\n    }\n\n    constructor () public {}\n\n    // \n    function createPet(int8 _variety, string memory _name) public {\n        Master storage master = users[msg.sender];\n        require(!master.hasPet, \"The user has had a pet!\");\n        master.checktime = now;\n        master.hasPet = true;\n        master.dog = Dog({\n            age: 0,\n            health: 100,\n            hunger: 100,\n            variety: Variety(_variety),\n            name : _name\n        });\n    }\n\n    // \n    function purchase(bool FoodOrMedicine) public payable hasPet {\n        uint money = 10000;\n        Master storage master = users[msg.sender];\n        require(money == msg.value, \"Pay wrong!\");\n        if (FoodOrMedicine) {\n            master.dog.health += 50;\n            if(master.dog.health > 100) master.dog.health = 100;\n        } else {\n            master.dog.hunger += 50;\n            if(master.dog.hunger > 100) master.dog.hunger = 100;\n        }\n    }\n\n    // \n    function getThePet() public grow returns(uint8, uint8, uint8, Variety, string memory) {\n        Master storage master = users[msg.sender];\n        return (master.dog.age, master.dog.health, master.dog.hunger, master.dog.variety, master.dog.name);\n    }\n\n    // \n    function exercise() public hasPet{\n        Master storage master = users[msg.sender];\n        require(master.dog.hunger >= 20, \"Your pet is really hungry eat some food first.\");\n        // \n        master.dog.health += 10;\n        if(master.dog.health > 100) master.dog.health = 100;\n        master.dog.hunger -= 10;\n    }\n\n\n    /*  */\n\n    // \n    function hasNotInFriend(address _friend, address[] memory _friends) private pure returns(bool) {\n        for(uint i = 0; i < _friends.length; ++i) {\n            if (_friend == _friends[i]) return false;\n        }\n        return true;\n    }\n\n    // \n    modifier hasfriend(address _friend) {\n        Friends storage _friends = friends[msg.sender];\n        require(hasNotInFriend(_friend, _friends.isfriends), \"You have been friends\");\n        require(hasNotInFriend(_friend, _friends.askfriends), \"You have asked yet\");\n        require(hasNotInFriend(_friend, _friends.recept), \"The friend is in your recept list\");\n        _;\n    }\n\n    // \n    modifier isfriend(address _friend) {\n        Friends storage _friends = friends[msg.sender];\n        require(!hasNotInFriend(_friend, _friends.isfriends), \"You aren't friends\");\n        _;\n    }\n\n\n\n    // \n    function askforfriend(address friend) public hasfriend(friend) {\n        require(users[msg.sender].hasPet, \"You should have no pet first!\");\n        require(users[friend].hasPet, \"Your friend has no pet!\");\n        require(friend != msg.sender, \"You can't ask yourself!\");\n        friends[msg.sender].askfriends.push(friend);\n        friends[friend].recept.push(msg.sender);\n    }\n    \n    // \n    function getfriendlist() public view returns(address[] memory, address[] memory, address[] memory) {\n        Friends memory _friends = friends[msg.sender];\n        return (_friends.isfriends, _friends.askfriends, _friends.recept);\n    }\n\n    // \n    function acceptfriend(address friend) public {\n        Friends storage _friends = friends[msg.sender];\n        require(!hasNotInFriend(friend, _friends.recept), \"The asker isn't in the recept list\");\n        _friends.isfriends.push(friend);\n        // recept\n        for (uint i = 0; i < _friends.recept.length; ++i) {\n            if (friend == _friends.recept[i]) {\n                _friends.recept[i] = _friends.recept[_friends.recept.length - 1];\n                delete _friends.recept[_friends.recept.length - 1];\n                _friends.recept.length--;\n                break;\n            }\n        }\n\n        // \n        Friends storage _friendfriends = friends[friend];\n        _friendfriends.isfriends.push(msg.sender);\n\n        // ask\n        for (uint i = 0; i < _friendfriends.askfriends.length; ++i) {\n            if (friend == _friendfriends.askfriends[i]) {\n                _friendfriends.askfriends[i] = _friendfriends.askfriends[_friendfriends.askfriends.length - 1];\n                delete _friendfriends.askfriends[_friendfriends.askfriends.length - 1];\n                _friendfriends.askfriends.length--;\n                break;\n            }\n        }\n\n    }\n    \n    // \n    function feedforFriend(address _friend) public payable isfriend(_friend) {\n        uint money = 10000;\n        Master storage master = users[_friend];\n        require(_friend != msg.sender, \"You can't feed yourself!\");\n        require(money == msg.value, \"Pay wrong!\");\n        \n        master.dog.hunger += 50;\n        if(master.dog.hunger > 100) master.dog.hunger = 100;\n    }\n\n    // \n    function getFriendPet(address _friend) public view isfriend(_friend) returns(uint8, uint8, uint8, Variety, string memory) {\n        Master storage master = users[_friend];\n        return (master.dog.age, master.dog.health, master.dog.hunger, master.dog.variety, master.dog.name);\n    }\n\n}\n",
  "sourcePath": "/Users/zengmac/Desktop/blockchain_pet/contracts/pet.sol",
  "compiler": {
    "name": "solc",
    "version": "0.5.0+commit.1d4f565a.Emscripten.clang"
  },
  "schemaVersion": "3.0.0",
  "updatedAt": "2019-01-06T07:15:56.948Z",
  "devdoc": {
    "methods": {}
  },
  "userdoc": {
    "methods": {}
  }
}